:020000040800F2
:10000000A00B0020CD010008410C00089909000850
:100010003D0C00086F0300080114000800000000F8
:10002000000000000000000000000000170E0008A3
:100030007303000800000000430C00080D120008C4
:10004000E7010008E7010008E7010008E7010008F0
:10005000E7010008E7010008E7010008E7010008E0
:10006000E7010008E7010008E7010008E7010008D0
:10007000E7010008E7010008E7010008E7010008C0
:10008000E7010008E7010008E7010008E7010008B0
:10009000E7010008E7010008E7010008E7010008A0
:1000A000E7010008E7010008E7010008E701000890
:1000B000E7010008E7010008E7010008E701000880
:1000C000E7010008E7010008E7010008E701000870
:1000D000E7010008E7010008E7010008E701000860
:1000E000E7010008E7010008E7010008E701000850
:1000F000E7010008E7010008E7010008E701000840
:10010000E7010008E7010008E7010008E70100082F
:10011000E7010008E7010008E7010008E70100081F
:10012000E7010008E7010008E7010008E70100080F
:1001300000F002F800F03AF80AA090E8000C8244BF
:100140008344AAF10107DA4501D100F02FF8AFF29C
:10015000090EBAE80F0013F0010F18BFFB1A43F0A5
:10016000010318473416000054160000103A24BF4B
:1001700078C878C1FAD8520724BF30C830C144BF0C
:1001800004680C607047000000230024002500264E
:10019000103A28BF78C1FBD8520728BF30C148BFEA
:1001A0000B6070471FB51FBD10B510BD00F0A8F85B
:1001B0001146FFF7F7FF01F053FA00F0C6F803B459
:1001C000FFF7F2FF03BC00F0CBF8000009488047BE
:1001D00009480047FEE7FEE7FEE7FEE7FEE7FEE729
:1001E000FEE7FEE7FEE7FEE704480549054A064B41
:1001F000704700001112000831010008A00500201E
:10020000A00B0020A0070020A0070020032A40F236
:10021000308010F0030C00F0158011F8013BBCF1A8
:10022000020F624498BF11F801CB00F8013B38BFC0
:1002300011F8013BA2F1040298BF00F801CB38BFCE
:1002400000F8013B11F0030300F02880083AC0F0E9
:10025000088051F8043B083A51F804CBA0E8081094
:10026000F5E7121D5CBF51F8043B40F8043BAFF3C7
:100270000080D20724BF11F8013B11F801CB48BF21
:1002800011F8012B24BF00F8013B00F801CB48BF57
:1002900000F8012B704770477047704710B5203A3F
:1002A000C0F00B80B1E81850203AA0E81850B1E82F
:1002B0001850A0E81850BFF4F5AF5FEA027C24BFE5
:1002C000B1E81850A0E8185044BF18C918C0BDE8DC
:1002D00010405FEA827C24BF51F8043B40F8043BA5
:1002E00008BF7047D20728BF31F8023B48BF11F85A
:1002F000012B28BF20F8023B48BF00F8012B7047B4
:10030000754600F029F8AE4605006946534620F0D0
:100310000700854618B020B5FFF766FFBDE820400E
:100320004FF000064FF000074FF000084FF0000BB1
:1003300021F00701AC46ACE8C009ACE8C009ACE864
:10034000C009ACE8C0098D4670470446AFF3008091
:100350002046FFF734FF00000048704740050020AA
:1003600001491820ABBEFEE726000200704700BF1F
:10037000FEE7704710B572B60D4800680D49084099
:10038000B0F1005F10D10A4840680B490860084688
:1003900000680A4908600649086880F3088800BFB9
:1003A00006480068804701E0012010BD0020FCE7FE
:1003B000003000080000FE2F1C0000201800002064
:1003C0002DE9F04700240025012602274FF00408FC
:1003D0004FF0010900F09EF905462A4800682840C0
:1003E00028490968884248D000F08EF9044625481B
:1003F000006828432349086000F0E6F88146214858
:100400000068401C28B11F480068C04300F07AF81B
:10041000814604F00700072811D004F0010000B95C
:10042000002604F0020000B9002704F0040008B917
:100430004FF0000842463946304600F0BFF9B9F1A6
:10044000040F16D110A000F0DFFD174800F0DCFD0E
:1004500000BFBFF34F8F1548006800F4E0601449F7
:100460000843001D11490860BFF34F8F00BF00BF54
:10047000FEE710A000F0C8FD02E019A000F0C4FDE6
:10048000BDE8F0872400002057726974652050721F
:100490006F74656374696F6E2064697361626C6503
:1004A000642E2E2E0D0A0000F81600080CED00E058
:1004B0000000FA054572726F723A20466C617368EB
:1004C00020777269746520756E70726F74656374DD
:1004D000696F6E206661696C65642E2E2E0D0A00B0
:1004E000466C617368206D656D6F7279206E6F74F4
:1004F0002077726974652070726F746563746564C7
:100500000D0A00002DE9F04304464FF6FF7637460A
:10051000B046B1460425E443E6B2C4F30727C4F36A
:1005200007484FEA1469E80200F07CF90546042DFB
:100530003FD12148214988602148886008460069E8
:1005400040F010000861FF2E05D01E480680E8022A
:1005500000F068F90546042D08D1FF2F06D0194890
:10056000801C0780E80200F05DF90546042D0AD1E1
:10057000B8F1FF0F07D01348001DA0F80080E80273
:1005800000F050F90546042D0AD1B9F1FF0F07D04C
:100590000C48801DA0F80090E80200F043F90546E1
:1005A000052D06D00548006941F6EF710840034962
:1005B00008612846BDE8F08323016745002002401A
:1005C000AB89EFCD08F8FF1F30B5A525042400F056
:1005D0008FF800B100254FF4302000F023F90446D5
:1005E000042C3AD11E481F4988601F48886008467D
:1005F000006940F0200008610846006940F04000B2
:1006000008614FF4302000F00DF90446042C1BD192
:100610001448006941F6DF71084012490861084634
:10062000006940F01000086110480580E00200F009
:10063000F9F80446052C10D00A48006941F6EF711C
:1006400008400849086108E0052C06D00548006903
:1006500041F6EF71084003490861204630BD0000B3
:100660002301674500200240AB89EFCD00F8FF1F52
:1006700030B5044604254FF4302000F0D3F8054689
:10068000042D17D10C48006940F002000A490861A6
:1006900008464461006940F0400008614FF4302092
:1006A00000F0C0F805460448006941F6FD710840B5
:1006B00001490861284630BD0020024004200B4952
:1006C000C96801F0010109B101200EE00749C968BC
:1006D00001F0040109B1022007E00449C96801F0F2
:1006E000100109B1032000E00420704700200240FF
:1006F00000200449C96901F0020109B1012000E0AC
:1007000000207047002002400148C06980087047FF
:10071000002002400148006A7047000000200240AB
:1007200001B500200099C1F30A021AB1012202EBBF
:10073000D12000E0C80A08BD78B506460C4604255D
:1007400000200090E80200F06DF80546042D24D149
:100750001348006940F00100114908613480E80243
:1007600000F060F80546042D10D1B01C0090200C5C
:1007700000990880E80200F055F80546084800692D
:1007800041F6FE7108400649086106E00448006928
:1007900041F6FE71084002490861284678BD000014
:1007A00000200240024803494860034848607047FF
:1007B0002301674500200240AB89EFCDF0B5054627
:1007C0000E4617460424134813498860134888606E
:1007D000E00200F027F80446042C18D10E48006906
:1007E00040F010000C49086147F0F80030432843FE
:1007F0000B490880E00200F015F80446052C06D0ED
:100800000548006941F6EF71084003490861204638
:10081000F0BD00002301674500200240AB89EFCD09
:1008200002F8FF1F00B502460423FFF747FF034607
:1008300003E0FFF743FF0346521E012B01D1002ABC
:10084000F7D102B90523184600BD10B502460023B2
:10085000002013888B4201D1012000E0002010BD50
:100860002DE9F04102460025002600200023002447
:10087000002791F803C00CF00F0591F803C00CF0AD
:10088000100CBCF1000F03D091F802C04CEA050532
:1008900091F800C0BCF1000F31D0146800202BE0AB
:1008A0004FF0010C0CFA00F3B1F800C00CEA03069B
:1008B0009E4220D183004FF00F0C0CFA03F7BC438B
:1008C00005FA03FC4CEA040491F803C0BCF1280FBC
:1008D00006D14FF0010C0CFA00FCC2F814C00AE07B
:1008E00091F803C0BCF1480F05D14FF0010C0CFA90
:1008F00000FCC2F810C0401C0828D1D31460B1F825
:1009000000C0BCF1FF0F34DD546800202EE000F180
:10091000080C4FF0010808FA0CF3B1F800C00CEA1B
:1009200003069E4221D183004FF00F0C0CFA03F70F
:10093000BC4305FA03FC4CEA040491F803C0BCF183
:10094000280F05D100F1080C08FA0CF8C2F8148041
:1009500091F803C0BCF1480F07D100F1080C4FF02B
:10096000010808FA0CF8C2F81080401C0828CED301
:100970005460BDE8F0814161704708B500200090E7
:1009800004E0684600F01EFB00B100E0F9E700BF9C
:100990009DF8000008BD000004A000F035FB03E056
:1009A0000F210648FFF7E7FFFAE700004552524FD4
:1009B000522121212121200A0D00000000180140B0
:1009C000F0B5144A00250024002320E0B1FBF2F624
:1009D000303606F0FF0C2E466D1C00F806C0B1FB49
:1009E000F2F602FB16110A26B2FBF6F26E1E865DC7
:1009F000302E01D1012600E000260CB9012700E0CD
:100A000000273E400EB1002500E0641C5B1C0A2B51
:100A1000DCD3F0BD00CA9A3B10B500243048006812
:100A2000A0F10060000B2F490860084600683E28CE
:100A300008D20846017801208840401EC0432A4958
:100A4000086003E04FF0004027490860FFF762FEAE
:100A500025490968084024490968884203D00120D3
:100A60002249086002E000202049086036E020A00A
:100A700000F0CAFA29A000F0C7FA1C48006810B1BB
:100A800031A000F0C1FA3BA000F0BEFAFFF775FFFD
:100A90000446312C02D100F0C7F91FE0332C0AD1F3
:100AA0003FA000F0B1FA4548FFF7E2FDFFF762FC16
:100AB000002813D010BD342C06D10C480068012842
:100AC00002D1FFF77DFC09E00848006818B93CA096
:100AD00000F09AFA02E049A000F096FAC7E7000099
:100AE000000000202000002024000020280000201A
:100AF0002020446F776E6C6F616420496D6167657B
:100B000020546F2074686520466C61736820456EC0
:100B10007465722020310D0A000000002020457805
:100B2000656375746520546865204E657720507242
:100B30006F6772616D20456E7465722020202020E1
:100B400020330D0A00000000202044697361626CAC
:100B500065207468652077726974652070726F749F
:100B6000656374696F6E20456E74657220340D0A7A
:100B70000000000020203D3D3D3D3D3D3D3D3D3DD3
:100B80003D3D3D3D3D3D3D3D3D3D3D3D3D3D3D3D95
:100B90003D3D3D3D3D3D3D3D3D3D0D0A00000000DC
:100BA0000D0A20457865637574652075736572203C
:100BB00050726F6772616D0D0A00000000F807083F
:100BC000496E76616C6964204E756D626572202194
:100BD000203D3D3E20546865206E756D6265722033
:100BE00073686F756C6420626520656974686572EE
:100BF0002031206F7220330D0A000000496E7661AB
:100C00006C6964204E756D6265722021203D3D3E09
:100C100020546865206E756D6265722073686F750B
:100C20006C642062652065697468657220312C20CF
:100C300033206F7220340D0A0000000000BFFEE771
:100C40007047704729B1064A92690243044B9A6182
:100C500004E0034A92698243014B9A6170470000A5
:100C60000010024030B500210022002400232D4D49
:100C70006D6805F00C0121B1042905D0082923D1A4
:100C800005E0294D056022E0274D05601FE0254D58
:100C90006D6805F47012234D6D6805F480340225EB
:100CA00005EB92421CB9214D554305600BE01D4DEB
:100CB0006D6805F400351DB11C4D5543056002E01B
:100CC000194D5543056002E0174D056000BF00BF98
:100CD000144D6D6805F0F0010909154D6B5C056850
:100CE000DD4045600F4D6D6805F4E061090A104D67
:100CF0006B5C4568DD4085600A4D6D6805F46051A8
:100D0000C90A0B4D6B5C4568DD40C560054D6D68DB
:100D100005F44041890B074D6B5CC568B5FBF3F5E5
:100D2000056130BD0010024000127A0000093D004C
:100D30002C0000203C00002070B505460C4606E063
:100D4000284600F03FF9012801D1002070BD2000A5
:100D5000A4F10104F4D1401EF8E72DE9F84304465C
:100D60000D4690460020286041466846FFF7E4FFA4
:100D700018B14FF0FF30BDE8F8839DF80000182847
:100D800013D006DC012809D0022809D0042820D17C
:100D900009E041281AD061281BD118E080271BE008
:100DA0004FF4806718E00020E5E741466846FFF70A
:100DB000C3FF40B99DF80000182804D14FF0FF3060
:100DC00028600020D7E74FF0FF30D4E700BF0120B4
:100DD000D1E74FF0FF30CEE700BF9DF80000207054
:100DE000012609E0A0194146FFF7A6FF10B14FF018
:100DF000FF30C0E7701C86B2781D8642F2DB617856
:100E0000A07880F0FF00814202D04FF0FF30B2E7BF
:100E10002F600020AFE7704710B50446204600F071
:100E2000E3F8002010BD00003EB51FA207CA8DE800
:100E3000070000241FA000F0E7F82D4800F0E2FAB8
:100E40000446002C19DD2B4800F0DEF82A4800F09B
:100E5000DBF821466846FFF7B3FD28A000F0D4F880
:100E6000684600F0D1F828A000F0CEF829A000F0E4
:100E7000CBF82E48FFF7FCFB14E0601C18B92CA03F
:100E800000F0C2F80EE0A01C18B939A000F0BCF8C0
:100E900008E0E01C18B93DA000F0B6F802E041A05F
:100EA00000F0B2F83EBD00002020202020202020AD
:100EB0002020000057616974696E6720666F722098
:100EC0007468652066696C6520746F2062652073A4
:100ED000656E74202E2E2E20287072657373202765
:100EE000612720746F2061626F7274290A0D0000FF
:100EF0004001002044170008400000200A0D205344
:100F0000697A653A200000002042797465730D0A01
:100F1000000000002D2D2D2D2D2D2D2D2D2D2D2DB5
:100F20002D2D2D2D2D2D2D0D0A00000000F8070868
:100F30000A0A0D54686520696D6167652073697AD6
:100F40006520697320686967686572207468616EDE
:100F50002074686520616C6C6F77656420737061C4
:100F60006365206D656D6F7279210A0D00000000C8
:100F70000A0A0D566572696669636174696F6E204D
:100F80006661696C6564210A0D0000000D0A0A4162
:100F9000626F7274656420627920757365722E0ABF
:100FA0000D0000000A0D4661696C656420746F20B5
:100FB00072656365697665207468652066696C652D
:100FC000210A0D0010B504462021064800F09AF9C8
:100FD00028B10448001D00882070012010BD0020A9
:100FE000FCE700000038014010B5044621460548E2
:100FF00000F002FA00BF8021024800F083F90028C7
:10100000F9D010BD0038014010B5044603E0207847
:10101000FFF7EAFF641C20780028F8D110BD10B556
:1010200000F002F810BD00000CB500200190009007
:101030003348006840F480303149086000BF3048D0
:10104000006800F4003000900198401C0190009866
:1010500018B90198B0F5A06FF1D12948006800F4E3
:10106000003010B10120009001E0002000900098B5
:10107000012843D12348006840F01000214908604E
:101080000846006820F0030008600846006840F049
:10109000020008601A4840681949486008464068DC
:1010A00048600846406840F48060486008464068F0
:1010B00020F47C1048600846406840F4E81048601E
:1010C0000846006840F08070086000BF0C48006867
:1010D00000F000700028F9D00948406820F00300B3
:1010E000074948600846406840F00200486000BF79
:1010F0000348406800F00C000828F9D10CBD00003E
:10110000001002400020024070B502460C4600214B
:10111000002500231078302843D15078782802D059
:10112000507858283DD1907808B9002070BD022130
:1011300030E0505C10B9236001252DE0505C41285F
:1011400002DB505C46280BDD505C612802DB505C02
:10115000662805DD505C302819DB505C392816DC28
:10116000505C302805DB505C392802DC505C30389C
:101170000AE0505C412805DB505C462802DC505CEC
:10118000373801E0505C573800EB031301E00025CD
:1011900002E0491C0B29CCD300BF0B2934D3002516
:1011A00032E000212AE0505C10B92360012527E0DD
:1011B000505C6B2802D0505C4B2804D119B19B02C3
:1011C000236001251CE0505C6D2802D0505C4D2846
:1011D00004D119B11B052360012511E0505C3028B2
:1011E00009DB505C392806DC505C303803EB8306A1
:1011F00000EB460301E0002502E0491C0B29D2D395
:1012000000BF0B2900D3002528468FE77047000058
:1012100010B51348006840F0010011490860084605
:101220004068104908400E494860084600680E4969
:1012300008400B4908600846006820F480200860D8
:101240000846406820F4FE0048604FF41F008860A4
:10125000FFF7E5FE4FF000600449086010BD000094
:10126000001002400000FFF8FFFFF6FE08ED00E06E
:1012700021B1828942F40052828104E082894DF6D4
:10128000FF731A408281704700B585B0012144F296
:101290000400FFF7D7FC4FF40070ADF800001820F1
:1012A0008DF8030003208DF8020069461348FFF70C
:1012B000D7FA4FF48060ADF8000004208DF80300E9
:1012C00069460E48FFF7CCFA4FF4E1300190002058
:1012D000ADF80800ADF80A00ADF80C00ADF810004C
:1012E0000C20ADF80E0001A9054800F019F8012105
:1012F0000348FFF7BDFF05B000BD00000008014036
:101300000038014002460020B1F5007F00D100BF47
:1013100013880B400BB1012000E000207047000053
:101320002DE9F04786B005460E460024A24600BFD0
:10133000A1460027B08900B100BF2F462C8A4CF689
:10134000FF700440F08804432C82AC894EF6F31001
:101350000440B08831890843718908430443AC8153
:10136000AC8A4FF6FF400440B0890443AC8201A828
:10137000FFF778FC1F48874202D1DDF810A001E09A
:10138000DDF80CA0A88900F4004040B10AEBCA00C7
:1013900000EB0A1031684900B0FBF1F807E00AEBF6
:1013A000CA0000EB0A1031688900B0FBF1F8642034
:1013B000B8FBF0F004012009642101FB1089A88921
:1013C00000F4004040B1322000EBC900B0FBF1F066
:1013D00000F00700044308E0322000EB091064210C
:1013E000B0FBF1F000F00F0004432C8106B0BDE823
:1013F000F087000000380140C1F308028280704786
:1014000000BFFEE72DE9F04FADF22C4D064600205F
:1014100001908B488B4908604FF0000B4FF0000A99
:101420000020029000BF002700200390B04600BFBC
:101430004FF4801204A909A8FFF78FFC10B101280E
:101440007ED1D0E04FF0000A0498B0F1FF3F01D008
:1014500070B907E00620FFF7DFFC00200DF22C4DED
:10146000BDE8F08F0620FFF7D7FC01200390B8E01D
:101470009DF82500F9B2884203D01520FFF7CCFC77
:10148000AFE0002F6ED19DF82700002863D0002523
:101490000DF1270405E014F8012B28466D1C6A495C
:1014A0000A54207808B1FF2DF5DD002228466D1C76
:1014B00065490A540025641C05E014F8012B2846F0
:1014C0006D1C05A90A542078202801D0102DF4DBCA
:1014D000002228466D1C05A90A5401A905A8FFF79A
:1014E00013FE0198B0F5002F08DB1820FFF794FCDD
:1014F0001820FFF791FC4FF0FF30AFE70198FFF79E
:101500000FF95249086000205149086010E04D4928
:101510000968504A12884E4B1B6802FB0310FFF704
:10152000A7F84D4908704A480068401C48490860BF
:101530004748006845490968884205D2464800E0A6
:101540005AE000780428E2D00620FFF765FC43202B
:10155000FFF762FC42E00620FFF75EFC01200390EB
:1015600083463EE00DF127014046049AFEF74EFE09
:101570003A4806604FF0000923E0384800680168E7
:1015800030480068FFF7D8F82E48006800683349F3
:1015900009680968884208D01820FFF73DFC182028
:1015A000FFF73AFC6FF0010058E726480068001D7D
:1015B0002449086029480068001D2849086009F18D
:1015C00004090498814506DA1D49019808441D491B
:1015D00009688842D1D80620FFF71EFC7F1C012035
:1015E000029000BF1CE01820FFF716FC1820FFF740
:1015F00013FC6FF0020031E70298002801DD0AF1C8
:10160000010ABAF1050F07DD1820FFF705FC1820C5
:10161000FFF702FC002021E74320FFF7FDFB00BF9E
:1016200000BF039800283FF403AF00BF00BFBBF129
:10163000000F3FF4F8AE00BF00BF01980EE70000B6
:101640000030000800000020400000200C000020B6
:1016500008000020040000201000002014000020DA
:101660000024FFF711FE41F234210D48FFF7EDF899
:1016700040B100BFFFF796F80AA0FFF7C5FCFFF7DF
:10168000CBF902E072B6FEF775FE08E00FA0FFF797
:10169000BBFCFFF772F90446392C00D1EAE7F5E705
:1016A00000F807080D0A20557067726164652074A0
:1016B00068652070726F6772616D20776974682049
:1016C000596D6F64656D200D0A0000000D0A204EF3
:1016D0006F20757365722050726F6772616D2C2078
:1016E000456E746572203920746F20757067726161
:1016F00064650D0A000000002E2E2E616E642061CC
:101700002053797374656D20526573657420776911
:101710006C6C2062652067656E657261746564201B
:10172000746F2072652D6C6F616420746865206E23
:101730006577206F7074696F6E2062797465730DC0
:101740000A0000000A0A0D2050726F6772616D6D09
:10175000696E6720436F6D706C65746564205375A6
:10176000636365737366756C6C79210A0D2D2D2D7D
:101770002D2D2D2D2D2D2D2D2D2D2D2D2D2D2D2D99
:101780002D2D2D2D2D2D2D2D2D2D2D2D2D0D0A20D9
:101790004E616D653A200000B81700080000002077
:1017A000400000006C010008F8170008400000200D
:1017B000600B0000880100080030000800080000ED
:1017C0000000000000000000040000000000000015
:1017D0000000000000000000000000000000000009
:1017E00000000000000000000102030401020304E5
:0817F0000607080902040608BF
:0400000508000131BD
:00000001FF
